{
  "contractName": "MCTOBar",
  "abi": [
    {
      "inputs": [
        {
          "internalType": "contract MCTO",
          "name": "_sushi",
          "type": "address"
        }
      ],
      "stateMutability": "nonpayable",
      "type": "constructor"
    },
    {
      "anonymous": false,
      "inputs": [
        {
          "indexed": true,
          "internalType": "address",
          "name": "owner",
          "type": "address"
        },
        {
          "indexed": true,
          "internalType": "address",
          "name": "spender",
          "type": "address"
        },
        {
          "indexed": false,
          "internalType": "uint256",
          "name": "value",
          "type": "uint256"
        }
      ],
      "name": "Approval",
      "type": "event"
    },
    {
      "anonymous": false,
      "inputs": [
        {
          "indexed": true,
          "internalType": "address",
          "name": "from",
          "type": "address"
        },
        {
          "indexed": true,
          "internalType": "address",
          "name": "to",
          "type": "address"
        },
        {
          "indexed": false,
          "internalType": "uint256",
          "name": "value",
          "type": "uint256"
        }
      ],
      "name": "Transfer",
      "type": "event"
    },
    {
      "inputs": [],
      "name": "MCTOPerBlock",
      "outputs": [
        {
          "internalType": "uint256",
          "name": "",
          "type": "uint256"
        }
      ],
      "stateMutability": "view",
      "type": "function",
      "constant": true
    },
    {
      "inputs": [
        {
          "internalType": "address",
          "name": "owner",
          "type": "address"
        },
        {
          "internalType": "address",
          "name": "spender",
          "type": "address"
        }
      ],
      "name": "allowance",
      "outputs": [
        {
          "internalType": "uint256",
          "name": "",
          "type": "uint256"
        }
      ],
      "stateMutability": "view",
      "type": "function",
      "constant": true
    },
    {
      "inputs": [
        {
          "internalType": "address",
          "name": "spender",
          "type": "address"
        },
        {
          "internalType": "uint256",
          "name": "amount",
          "type": "uint256"
        }
      ],
      "name": "approve",
      "outputs": [
        {
          "internalType": "bool",
          "name": "",
          "type": "bool"
        }
      ],
      "stateMutability": "nonpayable",
      "type": "function"
    },
    {
      "inputs": [
        {
          "internalType": "address",
          "name": "account",
          "type": "address"
        }
      ],
      "name": "balanceOf",
      "outputs": [
        {
          "internalType": "uint256",
          "name": "",
          "type": "uint256"
        }
      ],
      "stateMutability": "view",
      "type": "function",
      "constant": true
    },
    {
      "inputs": [],
      "name": "decimals",
      "outputs": [
        {
          "internalType": "uint8",
          "name": "",
          "type": "uint8"
        }
      ],
      "stateMutability": "view",
      "type": "function",
      "constant": true
    },
    {
      "inputs": [
        {
          "internalType": "address",
          "name": "spender",
          "type": "address"
        },
        {
          "internalType": "uint256",
          "name": "subtractedValue",
          "type": "uint256"
        }
      ],
      "name": "decreaseAllowance",
      "outputs": [
        {
          "internalType": "bool",
          "name": "",
          "type": "bool"
        }
      ],
      "stateMutability": "nonpayable",
      "type": "function"
    },
    {
      "inputs": [
        {
          "internalType": "address",
          "name": "spender",
          "type": "address"
        },
        {
          "internalType": "uint256",
          "name": "addedValue",
          "type": "uint256"
        }
      ],
      "name": "increaseAllowance",
      "outputs": [
        {
          "internalType": "bool",
          "name": "",
          "type": "bool"
        }
      ],
      "stateMutability": "nonpayable",
      "type": "function"
    },
    {
      "inputs": [],
      "name": "lastBlockRewarded",
      "outputs": [
        {
          "internalType": "uint256",
          "name": "",
          "type": "uint256"
        }
      ],
      "stateMutability": "view",
      "type": "function",
      "constant": true
    },
    {
      "inputs": [],
      "name": "lastBlockTimestamp",
      "outputs": [
        {
          "internalType": "uint256",
          "name": "",
          "type": "uint256"
        }
      ],
      "stateMutability": "view",
      "type": "function",
      "constant": true
    },
    {
      "inputs": [],
      "name": "name",
      "outputs": [
        {
          "internalType": "string",
          "name": "",
          "type": "string"
        }
      ],
      "stateMutability": "view",
      "type": "function",
      "constant": true
    },
    {
      "inputs": [],
      "name": "sushi",
      "outputs": [
        {
          "internalType": "contract MCTO",
          "name": "",
          "type": "address"
        }
      ],
      "stateMutability": "view",
      "type": "function",
      "constant": true
    },
    {
      "inputs": [],
      "name": "symbol",
      "outputs": [
        {
          "internalType": "string",
          "name": "",
          "type": "string"
        }
      ],
      "stateMutability": "view",
      "type": "function",
      "constant": true
    },
    {
      "inputs": [],
      "name": "totalSupply",
      "outputs": [
        {
          "internalType": "uint256",
          "name": "",
          "type": "uint256"
        }
      ],
      "stateMutability": "view",
      "type": "function",
      "constant": true
    },
    {
      "inputs": [
        {
          "internalType": "address",
          "name": "recipient",
          "type": "address"
        },
        {
          "internalType": "uint256",
          "name": "amount",
          "type": "uint256"
        }
      ],
      "name": "transfer",
      "outputs": [
        {
          "internalType": "bool",
          "name": "",
          "type": "bool"
        }
      ],
      "stateMutability": "nonpayable",
      "type": "function"
    },
    {
      "inputs": [
        {
          "internalType": "address",
          "name": "sender",
          "type": "address"
        },
        {
          "internalType": "address",
          "name": "recipient",
          "type": "address"
        },
        {
          "internalType": "uint256",
          "name": "amount",
          "type": "uint256"
        }
      ],
      "name": "transferFrom",
      "outputs": [
        {
          "internalType": "bool",
          "name": "",
          "type": "bool"
        }
      ],
      "stateMutability": "nonpayable",
      "type": "function"
    },
    {
      "inputs": [
        {
          "internalType": "uint256",
          "name": "_amount",
          "type": "uint256"
        }
      ],
      "name": "enter",
      "outputs": [],
      "stateMutability": "nonpayable",
      "type": "function"
    },
    {
      "inputs": [
        {
          "internalType": "uint256",
          "name": "_share",
          "type": "uint256"
        }
      ],
      "name": "leave",
      "outputs": [],
      "stateMutability": "nonpayable",
      "type": "function"
    },
    {
      "inputs": [],
      "name": "mintReward",
      "outputs": [],
      "stateMutability": "nonpayable",
      "type": "function"
    }
  ],
  "bytecode": "0x608060405266038d7ea4c680006007553480156200001c57600080fd5b50604051620011ca380380620011ca8339810160408190526200003f9162000185565b6040518060400160405280600781526020016626a1aa27a130b960c91b8152506040518060400160405280600781526020016673746b4d43544f60c81b815250816003908051906020019062000097929190620000df565b508051620000ad906004906020840190620000df565b5050600580546001600160a01b0319166001600160a01b039390931692909217909155504360065542600855620001f4565b828054620000ed90620001b7565b90600052602060002090601f0160209004810192826200011157600085556200015c565b82601f106200012c57805160ff19168380011785556200015c565b828001600101855582156200015c579182015b828111156200015c5782518255916020019190600101906200013f565b506200016a9291506200016e565b5090565b5b808211156200016a57600081556001016200016f565b6000602082840312156200019857600080fd5b81516001600160a01b0381168114620001b057600080fd5b9392505050565b600181811c90821680620001cc57607f821691505b60208210811415620001ee57634e487b7160e01b600052602260045260246000fd5b50919050565b610fc680620002046000396000f3fe608060405234801561001057600080fd5b50600436106101165760003560e01c806370a08231116100a2578063a59f3e0c11610071578063a59f3e0c14610238578063a9059cbb1461024b578063dd62ed3e1461025e578063eaba0c4e14610297578063eadf1f39146102a057600080fd5b806370a08231146101eb57806385e63fc61461021457806395d89b411461021d578063a457c2d71461022557600080fd5b806318160ddd116100e957806318160ddd1461019157806323b872dd146101a3578063313ce567146101b657806339509351146101c557806367dfd4c9146101d857600080fd5b806306fdde031461011b578063095ea7b3146101395780630a0879031461015c578063174f57af14610187575b600080fd5b6101236102a9565b6040516101309190610d4f565b60405180910390f35b61014c610147366004610dc0565b61033b565b6040519015158152602001610130565b60055461016f906001600160a01b031681565b6040516001600160a01b039091168152602001610130565b61018f610351565b005b6002545b604051908152602001610130565b61014c6101b1366004610dea565b610486565b60405160128152602001610130565b61014c6101d3366004610dc0565b610530565b61018f6101e6366004610e26565b61056c565b6101956101f9366004610e3f565b6001600160a01b031660009081526020819052604090205490565b61019560085481565b610123610685565b61014c610233366004610dc0565b610694565b61018f610246366004610e26565b61072d565b61014c610259366004610dc0565b61082a565b61019561026c366004610e61565b6001600160a01b03918216600090815260016020908152604080832093909416825291909152205490565b61019560075481565b61019560065481565b6060600380546102b890610e94565b80601f01602080910402602001604051908101604052809291908181526020018280546102e490610e94565b80156103315780601f1061030657610100808354040283529160200191610331565b820191906000526020600020905b81548152906001019060200180831161031457829003601f168201915b5050505050905090565b6000610348338484610837565b50600192915050565b600654431161039b5760405162461bcd60e51b8152602060048201526011602482015270626c6f636b206e756d626572206c6f636b60781b60448201526064015b60405180910390fd5b6008546103a9906005610ee5565b42116103e85760405162461bcd60e51b815260206004820152600e60248201526d74696d657374616d70206c6f636b60901b6044820152606401610392565b6000600654436103f89190610efd565b42600855436006556005546007549192506001600160a01b0316906340c10f199030906104259085610f14565b6040516001600160e01b031960e085901b1681526001600160a01b0390921660048301526024820152604401600060405180830381600087803b15801561046b57600080fd5b505af115801561047f573d6000803e3d6000fd5b5050505050565b600061049384848461095c565b6001600160a01b0384166000908152600160209081526040808320338452909152902054828110156105185760405162461bcd60e51b815260206004820152602860248201527f45524332303a207472616e7366657220616d6f756e74206578636565647320616044820152676c6c6f77616e636560c01b6064820152608401610392565b6105258533858403610837565b506001949350505050565b3360008181526001602090815260408083206001600160a01b03871684529091528120549091610348918590610567908690610ee5565b610837565b600061057760025490565b6005546040516370a0823160e01b815230600482015291925060009183916001600160a01b0316906370a0823190602401602060405180830381865afa1580156105c5573d6000803e3d6000fd5b505050506040513d601f19601f820116820180604052508101906105e99190610f33565b6105f39085610f14565b6105fd9190610f4c565b90506106093384610b2a565b60055460405163a9059cbb60e01b8152336004820152602481018390526001600160a01b039091169063a9059cbb906044015b6020604051808303816000875af115801561065b573d6000803e3d6000fd5b505050506040513d601f19601f8201168201806040525081019061067f9190610f6e565b50505050565b6060600480546102b890610e94565b3360009081526001602090815260408083206001600160a01b0386168452909152812054828110156107165760405162461bcd60e51b815260206004820152602560248201527f45524332303a2064656372656173656420616c6c6f77616e63652062656c6f77604482015264207a65726f60d81b6064820152608401610392565b6107233385858403610837565b5060019392505050565b6005546040516370a0823160e01b81523060048201526000916001600160a01b0316906370a0823190602401602060405180830381865afa158015610776573d6000803e3d6000fd5b505050506040513d601f19601f8201168201806040525081019061079a9190610f33565b905060006107a760025490565b90508015806107b4575081155b156107c8576107c33384610c70565b6107ed565b6000826107d58386610f14565b6107df9190610f4c565b90506107eb3382610c70565b505b6005546040516323b872dd60e01b8152336004820152306024820152604481018590526001600160a01b03909116906323b872dd9060640161063c565b600061034833848461095c565b6001600160a01b0383166108995760405162461bcd60e51b8152602060048201526024808201527f45524332303a20617070726f76652066726f6d20746865207a65726f206164646044820152637265737360e01b6064820152608401610392565b6001600160a01b0382166108fa5760405162461bcd60e51b815260206004820152602260248201527f45524332303a20617070726f766520746f20746865207a65726f206164647265604482015261737360f01b6064820152608401610392565b6001600160a01b0383811660008181526001602090815260408083209487168084529482529182902085905590518481527f8c5be1e5ebec7d5bd14f71427d1e84f3dd0314c0f7b2291e5b200ac8c7c3b92591015b60405180910390a3505050565b6001600160a01b0383166109c05760405162461bcd60e51b815260206004820152602560248201527f45524332303a207472616e736665722066726f6d20746865207a65726f206164604482015264647265737360d81b6064820152608401610392565b6001600160a01b038216610a225760405162461bcd60e51b815260206004820152602360248201527f45524332303a207472616e7366657220746f20746865207a65726f206164647260448201526265737360e81b6064820152608401610392565b6001600160a01b03831660009081526020819052604090205481811015610a9a5760405162461bcd60e51b815260206004820152602660248201527f45524332303a207472616e7366657220616d6f756e7420657863656564732062604482015265616c616e636560d01b6064820152608401610392565b6001600160a01b03808516600090815260208190526040808220858503905591851681529081208054849290610ad1908490610ee5565b92505081905550826001600160a01b0316846001600160a01b03167fddf252ad1be2c89b69c2b068fc378daa952ba7f163c4a11628f55a4df523b3ef84604051610b1d91815260200190565b60405180910390a361067f565b6001600160a01b038216610b8a5760405162461bcd60e51b815260206004820152602160248201527f45524332303a206275726e2066726f6d20746865207a65726f206164647265736044820152607360f81b6064820152608401610392565b6001600160a01b03821660009081526020819052604090205481811015610bfe5760405162461bcd60e51b815260206004820152602260248201527f45524332303a206275726e20616d6f756e7420657863656564732062616c616e604482015261636560f01b6064820152608401610392565b6001600160a01b0383166000908152602081905260408120838303905560028054849290610c2d908490610efd565b90915550506040518281526000906001600160a01b038516907fddf252ad1be2c89b69c2b068fc378daa952ba7f163c4a11628f55a4df523b3ef9060200161094f565b6001600160a01b038216610cc65760405162461bcd60e51b815260206004820152601f60248201527f45524332303a206d696e7420746f20746865207a65726f2061646472657373006044820152606401610392565b8060026000828254610cd89190610ee5565b90915550506001600160a01b03821660009081526020819052604081208054839290610d05908490610ee5565b90915550506040518181526001600160a01b038316906000907fddf252ad1be2c89b69c2b068fc378daa952ba7f163c4a11628f55a4df523b3ef9060200160405180910390a35050565b600060208083528351808285015260005b81811015610d7c57858101830151858201604001528201610d60565b81811115610d8e576000604083870101525b50601f01601f1916929092016040019392505050565b80356001600160a01b0381168114610dbb57600080fd5b919050565b60008060408385031215610dd357600080fd5b610ddc83610da4565b946020939093013593505050565b600080600060608486031215610dff57600080fd5b610e0884610da4565b9250610e1660208501610da4565b9150604084013590509250925092565b600060208284031215610e3857600080fd5b5035919050565b600060208284031215610e5157600080fd5b610e5a82610da4565b9392505050565b60008060408385031215610e7457600080fd5b610e7d83610da4565b9150610e8b60208401610da4565b90509250929050565b600181811c90821680610ea857607f821691505b60208210811415610ec957634e487b7160e01b600052602260045260246000fd5b50919050565b634e487b7160e01b600052601160045260246000fd5b60008219821115610ef857610ef8610ecf565b500190565b600082821015610f0f57610f0f610ecf565b500390565b6000816000190483118215151615610f2e57610f2e610ecf565b500290565b600060208284031215610f4557600080fd5b5051919050565b600082610f6957634e487b7160e01b600052601260045260246000fd5b500490565b600060208284031215610f8057600080fd5b81518015158114610e5a57600080fdfea2646970667358221220fcf9f2a654016cbdb6a9656db85215134a73a6fec96412c0e93dea4eb3993f2264736f6c634300080a0033",
  "immutableReferences": {},
  "source": "// SPDX-License-Identifier: MIT\n\npragma solidity 0.8.10;\n\nimport \"@openzeppelin/contracts/token/ERC20/IERC20.sol\";\nimport \"@openzeppelin/contracts/token/ERC20/ERC20.sol\";\nimport \"../MasterChef/MCTO.sol\";\n\n// SushiBar is the coolest bar in town. You come in with some Sushi, and leave with more! The longer you stay, the more Sushi you get.\n//\n// This contract handles swapping to and from xSushi, SushiSwap's staking token.\ncontract MCTOBar is ERC20(\"MCTOBar\", \"stkMCTO\"){\n    MCTO public sushi;\n    uint public lastBlockRewarded;\n    uint public MCTOPerBlock = 1000000000000000;\n    uint public lastBlockTimestamp;\n\n    // Define the Sushi token contract\n    constructor(MCTO _sushi) {\n        sushi = _sushi;\n        lastBlockRewarded = block.number;\n        lastBlockTimestamp = block.timestamp;\n    }\n\n    // Enter the bar. Pay some SUSHIs. Earn some shares.\n    // Locks Sushi and mints xSushi\n    function enter(uint256 _amount) public {\n        // Gets the amount of Sushi locked in the contract\n        uint256 totalSushi = sushi.balanceOf(address(this));\n        // Gets the amount of xSushi in existence\n        uint256 totalShares = totalSupply();\n        // If no xSushi exists, mint it 1:1 to the amount put in\n        if (totalShares == 0 || totalSushi == 0) {\n            _mint(msg.sender, _amount);\n        } \n        // Calculate and mint the amount of xSushi the Sushi is worth. The ratio will change overtime, as xSushi is burned/minted and Sushi deposited + gained from fees / withdrawn.\n        else {\n            uint256 what = _amount * totalShares / totalSushi;\n            _mint(msg.sender, what);\n        }\n        // Lock the Sushi in the contract\n        sushi.transferFrom(msg.sender, address(this), _amount);\n    }\n\n    // Leave the bar. Claim back your SUSHIs.\n    // Unlocks the staked + gained Sushi and burns xSushi\n    function leave(uint256 _share) public {\n        // Gets the amount of xSushi in existence\n        uint256 totalShares = totalSupply();\n        // Calculates the amount of Sushi the xSushi is worth\n        uint256 what = _share * sushi.balanceOf(address(this)) / totalShares;\n        _burn(msg.sender, _share);\n        sushi.transfer(msg.sender, what);\n    }\n\n    function mintReward() public {\n        require(block.number > lastBlockRewarded, 'block number lock');\n        require(block.timestamp > (lastBlockTimestamp + 5 seconds), 'timestamp lock');\n        uint totalBlockToMint = block.number - lastBlockRewarded;\n        lastBlockTimestamp = block.timestamp;\n        lastBlockRewarded = block.number;\n        sushi.mint(address(this), totalBlockToMint * MCTOPerBlock);\n    }\n}",
  "sourcePath": "/home/aphal/alyra/defi-alyra/contracts/Staking/MCTOBar.sol",
  "compiler": {
    "name": "solc",
    "version": "0.8.10+commit.fc410830.Emscripten.clang"
  },
  "schemaVersion": "3.4.3",
  "updatedAt": "2021-12-06T14:26:08.623Z",
  "networkType": "ethereum",
  "devdoc": {
    "kind": "dev",
    "methods": {
      "allowance(address,address)": {
        "details": "See {IERC20-allowance}."
      },
      "approve(address,uint256)": {
        "details": "See {IERC20-approve}. Requirements: - `spender` cannot be the zero address."
      },
      "balanceOf(address)": {
        "details": "See {IERC20-balanceOf}."
      },
      "decimals()": {
        "details": "Returns the number of decimals used to get its user representation. For example, if `decimals` equals `2`, a balance of `505` tokens should be displayed to a user as `5.05` (`505 / 10 ** 2`). Tokens usually opt for a value of 18, imitating the relationship between Ether and Wei. This is the value {ERC20} uses, unless this function is overridden; NOTE: This information is only used for _display_ purposes: it in no way affects any of the arithmetic of the contract, including {IERC20-balanceOf} and {IERC20-transfer}."
      },
      "decreaseAllowance(address,uint256)": {
        "details": "Atomically decreases the allowance granted to `spender` by the caller. This is an alternative to {approve} that can be used as a mitigation for problems described in {IERC20-approve}. Emits an {Approval} event indicating the updated allowance. Requirements: - `spender` cannot be the zero address. - `spender` must have allowance for the caller of at least `subtractedValue`."
      },
      "increaseAllowance(address,uint256)": {
        "details": "Atomically increases the allowance granted to `spender` by the caller. This is an alternative to {approve} that can be used as a mitigation for problems described in {IERC20-approve}. Emits an {Approval} event indicating the updated allowance. Requirements: - `spender` cannot be the zero address."
      },
      "name()": {
        "details": "Returns the name of the token."
      },
      "symbol()": {
        "details": "Returns the symbol of the token, usually a shorter version of the name."
      },
      "totalSupply()": {
        "details": "See {IERC20-totalSupply}."
      },
      "transfer(address,uint256)": {
        "details": "See {IERC20-transfer}. Requirements: - `recipient` cannot be the zero address. - the caller must have a balance of at least `amount`."
      },
      "transferFrom(address,address,uint256)": {
        "details": "See {IERC20-transferFrom}. Emits an {Approval} event indicating the updated allowance. This is not required by the EIP. See the note at the beginning of {ERC20}. Requirements: - `sender` and `recipient` cannot be the zero address. - `sender` must have a balance of at least `amount`. - the caller must have allowance for ``sender``'s tokens of at least `amount`."
      }
    },
    "version": 1
  },
  "userdoc": {
    "kind": "user",
    "methods": {},
    "version": 1
  }
}